:020000040000FA
:0400000080312628FD
:100008007E1480318B1E09280A2812280B1D0D2802
:100018000E28122884312624803124280B1F152805
:10002800162824282100131E1A281B2824282000FB
:10003800131E1F2820282428843161248031242875
:100048007E1009008031282806308400833085001E
:10005800A03086000030870040308431B5248031DC
:10006800F001F101F201F301F401F50120308400FF
:100078000030850024308431BB2480317E1020007C
:100088008331462B20003F08A03E860087010108E7
:10009800C9002A0849060319522853285428D32985
:1000A800C8302006031959285A285B28D3298B30D1
:1000B80021060319602861286228D3290310220029
:1000C8000D1F0314031869286C2822000D176E28C9
:1000D80022000D132000BE01BF1E73287428772844
:1000E80022008C15792822008C112000BF1A7D2847
:1000F8007E289428BF198128822894283F198528AA
:10010800862894283F1A89288A28942822000C10C7
:1001180000302000C400C5008331F1238031C2299A
:10012800BF1A97289828AF28BF199B289C28AF2862
:100138003F199F28A028AF283F1EA328A428AF282E
:1001480022000C10C7302000C4000030C5008331E5
:10015800F1238031C229BF1AB228B328C228BF1997
:10016800B628B728C2283F1DBA28BB28C2283F1A7C
:10017800BE28BF28C22822000C148C28BF1AC52804
:10018800C628D528BF19C928CA28D5283F1DCD2873
:10019800CE28D5283F1ED128D228D52822000C10D9
:1001A800A628BF1AD828D928F028BF1DDC28DD28A2
:1001B800F0283F19E028E128F0283F1AE428E5282C
:1001C800F02822000C10F3302000C4000130C500D4
:1001D8008331F1238031C229BF1AF328F428032977
:1001E800BF1DF728F82803293F19FB28FC280329F5
:1001F8003F1EFF280029032922000C10E728BF1AF8
:10020800062907291629BF1D0A290B2916293F1D6A
:100218000E290F2916293F1A1229132916292200F7
:100228000C14E728BF1A19291A292929BF1D1D29C5
:100238001E2929293F1D2129222929293F1E25292F
:100248002629292922000C14E728BF1E2C292D292C
:100258003C29BF19302931293C293F19342935292E
:100268003C293F1A382939293C2922000C108C28AE
:10027800BF1E3F2940294F29BF19432944294F2927
:100288003F19472948294F293F1E4B294C294F29F7
:1002980022000C10A628BF1E522953296329BF1912
:1002A8005629572963293F1D5A295B2963293F1A73
:1002B8005E295F29632922008C150C108C28BF1E2B
:1002C800662967297629BF196A296B2976293F1D6E
:1002D8006E296F2976293F1E7229732976292200F3
:1002E8000C10A628BF1E79297A298929BF1D7D29C6
:1002F8007E2989293F198129822989293F1A852937
:100308008629892922000C10E728BF1E8C298D29EF
:100318009C29BF1D902991299C293F199429952929
:100328009C293F1E982999299C2922000C10E7280E
:10033800BF1E9F29A029AF29BF1DA329A429AF2922
:100348003F1DA729A829AF293F1AAB29AC29AF29F6
:1003580022000C14E728BF1EB229B329C229BF1DE9
:10036800B629B729C2293F1DBA29BB29C2293F1E70
:10037800BE29BF29C22922000C14E7282000CA017F
:100388004A08203E8600870181010130C8004808DC
:10039800CA070B304A02031CD229D329C4290800F2
:1003A800043026001306031DDA29DB29662A77089C
:1003B800F1007608F0000530930020003903031D92
:1003C800E629E729942AB9012C087102031DEE29B0
:1003D8002B087002031CF129F229F9292B08700255
:1003E800AD002C08713BAE00052A2C08F9002B083B
:1003F800F800F809F90970087807AD007108793D27
:10040800AE003008F9002F08F800F936F80CF93674
:10041800F80CF936F80C7808BB002E08F9002D08FE
:10042800F800F936F80CF936F80CF936F80C7808B3
:10043800F20072083B020318222A232A272A3B08C3
:100448007202BA002A2A72083B02BA003808031D51
:100458002E2A2F2A392A16303A020318342A352A26
:10046800652AB801B80AB701942A16303A02031867
:100478003E2A3F2A4C2A0130F800370A442AF83528
:10048800890B432A7808FF3AF9007908F405572AB6
:100498000130F800370A512AF835890B502A7808B4
:1004A800F9007908F4040130F8007808B707083033
:1004B8003702031C602A612A652AB8010130C3008B
:1004C800942A942A05301306031D6B2A6C2A942A51
:1004D80077082000AC007608AB00043026009300B3
:1004E800710820002C02031D7B2A70082B02031CB4
:1004F8007E2A7F2A862A70082B02AF0071082C3BBF
:10050800B000922A7108F9007008F800F809F90992
:100518002B087807AF002C08793DB000B901B90A5B
:10052800080020004303031D9A2A9B2A052BC301B8
:10053800E22AC8307406031DA22AA32AA82AC101E8
:10054800C10A7408A000052BC101052B8B30740665
:10055800031DAF2AB02AA82A7408A1000230C100DE
:10056800052B7408A2000330C100052B7408A300F2
:100578000430C100052B7408A4000530C100052B08
:100588007408A5000630C100052B7408A6000730C2
:10059800C100052B7408A7000830C100052B74089A
:1005A800A8000930C100052B7408A9000A30C10051
:1005B800052B7408AA00C201C20AA82A4108003AF9
:1005C80003199D2A013A0319AA2A033A0319B52ADD
:1005D800013A0319BA2A073A0319BF2A013A03193B
:1005E800C42A033A0319C92A013A0319CE2A0F3A31
:1005F8000319D32A013A0319D82A033A0319DD2A21
:10060800A82A08004C349F34ED343E349A34003420
:100618000034003427340034003400347334A034F8
:10062800D23401348E345D342F34FC3467340034D2
:1006380000340034DA34003400340034B134623425
:100648001034C3342D34FE348C345F342C340034ED
:10065800003400343834EB3499344A341234C13419
:10066800B3346034EF343C344E349D34D1340034E8
:10067800003400346C34003400340034D034033493
:100688007134A23484310D24833152302000C400E7
:100698000430C5008431C12483318B170B17003017
:1006A8002000C400C5008331F123833122000C10DF
:1006B8008231952283318331842383318331B52379
:1006C800833120003C08031D6A2B6B2B762B3D03DE
:1006D800031D6F2B702B722BBD015C2B80314620C4
:1006E80083315C2BBC01F330C4000130C500833179
:1006F800F123833122000C108C155C2B80312628C5
:1007080020002208F3002308C000BF01731D8D2BB1
:100718008E2B902BBF16912BBF12F31D942B952B6C
:10072800972B3F16982B3F12731E9B2B9C2B9E2BAF
:10073800BF159F2BBF11F31EA22BA32BA52B3F1573
:10074800A62B3F11C01EA92BAA2BAC2BBF14AD2B77
:10075800BF10401FB02BB12BB32B3F14B42B3F104D
:100768000800063020002206031DBB2BBC2BD22B11
:10077800D5302A06031DC12BC22BD22B22008C1583
:100788002000BD01BD0A0030C400C5008331F1233B
:10079800833122000C102000BE01D32BBD010800BC
:1007A8002200900101308C008D0110308E0008303D
:1007B80021009000F6308C00BF308D00FD308E0097
:1007C8003F3023008D003F308C00240090018D01C4
:1007D8002100951722009D01080020004508C70048
:1007E8004408C600C736C60CC736C60C46082500DE
:1007F8009800200044080339C6000430C635890B28
:10080800022C25001A08CF392000460425009A003A
:1008180008008331D423843184319724843184318E
:10082800C724843184317D2484318431A3248431E4
:100838008431AD24843184317024843184313E2460
:10084800843108000B117508200095000130B107AC
:100858000030B23D003032020A3003193102031C65
:10086800362C372C3D2C84318A2484312000B10168
:10087800B201080021001508C03914389500063067
:10088800200095000630F5000B118B16CB30C40004
:100898000430C5008431C124843108000130F600D9
:1008A80076082000BE07C8303E02031C5C2C5D2C75
:1008B800602CBC01BC0ABE010800200013122600EF
:1008C8001108FA001208FB007B08F7007A08F60006
:1008D8008131D4218431080010302000990097011B
:1008E800960111101708B6001608B50001309800D7
:1008F80008000C3025009A009C0180309B000130D4
:100908009D0099019801F3309E05080020003308E6
:1009180034040319902C912C962C34088A0033083F
:100928000A008431080070302100990098012200E3
:10093800960121001A1FA12CA22C9D2C080005301D
:100948002600930092019101200013122100131632
:1009580008007C3020009B009A01911007309C0011
:100968000800FE0012001E00FE0BB62C00346400C6
:1009780080010131890BBC2C003420004508B400EB
:100988004408B3000800163021009700080008004A
:020000040001F9
:04000E00C43FFF1FCD
:00000001FF
