:020000040000FA
:0400000080312628FD
:100008007E1480318B1E09280A2812280B1D0D2802
:100018000E28122884312524803124280B1F152806
:10002800162824282100131E1A281B2824282000FB
:10003800131E1F2820282428843160248031242876
:100048007E1009008031282805308400833085001F
:10005800A03086000030870040308431B4248031DD
:10006800F001F101F201F301F401F50120308400FF
:100078000030850024308431BA2480317E1020007D
:100088008331452B20003F08A03E860087010108E8
:10009800C9002A0849060319522853285428D22986
:1000A800C8302006031959285A285B28D2298B30D2
:1000B80021060319602861286228D229031022002A
:1000C8000D1F0314031869286C2822000D176E28C9
:1000D80022000D132000BE01BF1E73287428772844
:1000E80022008C15792822008C1120003F197D28C8
:1000F8007E289428BF198128822894283F1A8528A9
:1001080086289428BF1A89288A28942822000C1047
:1001180000302000C400C5008331F0238031C1299C
:100128003F1997289828A728BF199B289C28A728F3
:100138003F1A9F28A028A728BF1EA328A428A728BD
:1001480022000C108C283F19AA28AB28C228BF19F6
:10015800AE28AF28C2283F1EB228B328C228BF1A2B
:10016800B628B728C22822000C10C7302000C400C7
:100178000030C5008331F0238031C1293F19C528DB
:10018800C628D528BF19C928CA28D5283F1ECD2872
:10019800CE28D528BF1ED128D228D52822000C1059
:1001A800B9283F19D828D928F028BF1DDC28DD2810
:1001B800F0283F1AE028E128F028BF1AE428E528AB
:1001C800F02822000C10F3302000C4000130C500D4
:1001D8008331F0238031C1293F19F328F4280329FA
:1001E800BF1DF728F82803293F1AFB28FC280329F4
:1001F800BF1EFF280029032922000C10E7283F19F9
:10020800062907291629BF1D0A290B2916293F1E69
:100218000E290F291629BF1A122913291629220077
:100228000C10E7283F1919291A292929BF1D1D294A
:100238001E2929293F1E212922292929BF1E2529AE
:100248002629292922000C10E7283F1D2C292D29B1
:100258003C29BF19302931293C293F1A342935292D
:100268003C29BF1A382939293C2922000C148C282A
:100278003F1D3F2940294F29BF19432944294F29A8
:100288003F1A472948294F29BF1E4B294C294F2976
:1002980022000C108C283F1D522953296229BF19AE
:1002A8005629572962293F1E5A295B296229BF1AF4
:1002B8005E295F29622922000C10B9283F1D652993
:1002C80066297529BF1969296A2975293F1E6D296B
:1002D8006E297529BF1E71297229752922000C10F3
:1002E800B9283F1D782979298829BF1D7C297D29AE
:1002F80088293F1A802981298829BF1A84298529B4
:10030800882922000C14E7283F1D8B298C299B295A
:10031800BF1D8F2990299B293F1A932994299B292E
:10032800BF1E972998299B2922000C14E7283F1DF6
:100338009E299F29AE29BF1DA229A329AE293F1EA8
:10034800A629A729AE29BF1AAA29AB29AE292200B6
:100358000C14E7283F1DB129B229C129BF1DB529B1
:10036800B629C1293F1EB929BA29C129BF1EBD29ED
:10037800BE29C12922000C14E7282000CA014A0816
:10038800203E8600870181010130C8004808CA075D
:100398000B304A02031CD129D229C3290800043092
:1003A80026001306031DD929DA29652A7708F100E2
:1003B8007608F0000530930020003903031DE52975
:1003C800E629932AB9012C087102031DED292B088F
:1003D8007002031CF029F129F8292B087002AD00DE
:1003E8002C08713BAE00042A2C08F9002B08F800F1
:1003F800F809F90970087807AD007108793DAE0071
:100408003008F9002F08F800F936F80CF936F80C1E
:10041800F936F80C7808BB002E08F9002D08F8000A
:10042800F936F80CF936F80CF936F80C7808F200B9
:1004380072083B020318212A222A262A3B08720244
:10044800BA00292A72083B02BA003808031D2D2A6F
:100458002E2A382A10303A020318332A342A642AFA
:10046800B801B80AB701932A10303A0203183D2A96
:100478003E2A4B2A0130F800370A432AF835890BFF
:10048800422A7808FF3AF9007908F405562A01301B
:10049800F800370A502AF835890B4F2A7808F900EE
:1004A8007908F4040130F8007808B70708303702F3
:1004B800031C5F2A602A642AB8010130C300932A0A
:1004C800932A05301306031D6A2A6B2A932A770894
:1004D8002000AC007608AB000430260093007108B9
:1004E80020002C02031D7A2A70082B02031C7D2A87
:1004F8007E2A852A70082B02AF0071082C3BB000B9
:10050800912A7108F9007008F800F809F9092B0810
:100518007807AF002C08793DB000B901B90A080086
:1005280020004303031D992A9A2A042BC301E12AB8
:10053800C8307406031DA12AA22AA72AC101C10A2C
:100548007408A000042BC101042B8B307406031D12
:10055800AE2AAF2AA72A7408A1000230C100042BD2
:100568007408A2000330C100042B7408A3000430EF
:10057800C100042B7408A4000530C100042B7408C2
:10058800A5000630C100042B7408A6000730C1007E
:10059800042B7408A7000830C100042B7408A800B5
:1005A8000930C100042B7408A9000A30C100042BCB
:1005B8007408AA00C201C20AA72A4108003A03190E
:1005C8009C2A013A0319A92A033A0319B42A013AC1
:1005D8000319B92A073A0319BE2A013A0319C32A8B
:1005E800033A0319C82A013A0319CD2A0F3A031905
:1005F800D22A013A0319D72A033A0319DC2AA72A6F
:1006080008004C349F34ED343E346634B534C73476
:10061800143459348A34F8342B347334A034D23433
:1006280001348E345D342F34FC34A43477340534EB
:10063800D6349B3448343A34E934B1346234103413
:10064800C3342D34FE348C345F340734D434A634A8
:1006580075343834EB3499344A341234C134B334F1
:100668006034EF343C344E349D34C534163464342D
:10067800B734FA3429345B348834D03403347134D1
:10068800A23484310C24833151302000C40004305A
:10069800C5008431C02483318B170B17003020002C
:1006A800C400C5008331F023833122000C1082314D
:1006B800942283318331832383318331B42383317B
:1006C80020003C08031D692B6A2B752B3D03031D75
:1006D8006E2B6F2B712BBD015B2B80314620833134
:1006E8005B2BBC01F330C4000130C5008331F0231B
:1006F800833122000C108C155B2B803126282000BA
:100708002208F3002308C000BF01731D8C2B8D2B1A
:100718008F2BBF16902BBF12F31D932B942B962B68
:100728003F16972B3F12731E9A2B9B2B9D2BBF15A1
:100738009E2BBF11F31EA12BA22BA42B3F15A52B7B
:100748003F11C01EA82BA92BAB2BBF14AC2BBF107D
:10075800401FAF2BB02BB22B3F14B32B3F10080018
:10076800063020002206031DBA2BBB2BD12BD53017
:100778002A06031DC02BC12BD12B22008C1520006B
:10078800BD01BD0A0030C400C5008331F0238331A8
:1007980022000C102000BE01D22BBD01080022004F
:1007A800900101308C008D0110308E00083021003E
:1007B8009000F6308C00BF308D00FD308E003F3049
:1007C80023008D003F308C00240090018D01210012
:1007D800951722009D01080020004508C70044081D
:1007E800C600C736C60CC736C60C46082500980092
:1007F800200044080339C6000430C635890B012C93
:1008080025001A08CF392000460425009A00080060
:100818008331D32384318431962484318431C624AE
:10082800843184317C2484318431A224843184311C
:10083800AC24843184316F24843184313D24843163
:1008480008000B117508200095000130B107003031
:10085800B23D003032020A3003193102031C352C34
:10086800362C3C2C8431892484312000B101B2011A
:10087800080021001508C0391438950006302000FA
:1008880095000630F5000B118B16CA30C4000430F1
:10089800C5008431C024843108000130F600760890
:1008A8002000BE07C8303E02031C5B2C5C2C5F2C6A
:1008B800BC01BC0ABE010800200013122600110862
:1008C800FA001208FB007B08F7007A08F60081316D
:1008D800D321843108001030200099009701960137
:1008E80011101708B6001608B50001309800080066
:1008F8000C3025009A009C0180309B0001309D003F
:1009080099019801F3309E0508002000330834044B
:1009180003198F2C902C952C34088A0033080A0070
:100928008431080070302100990098012200960156
:1009380021001A1FA02CA12C9C2C08000530260091
:100948009300920191012000131221001316080050
:100958007C3020009B009A01911007309C00080011
:10096800FE0012001E00FE0BB52C0034640080014E
:100978000131890BBB2C003420004508B400440821
:0E098800B30008001630210097000800080098
:020000040001F9
:04000E00C43FFF1FCD
:00000001FF
