:020000040000FA
:0400000080312628FD
:100008007E1480318B1E09280A2812280B1D0D2802
:100018000E28122884312C24803124280B1F1528FF
:10002800162824282100131E1A281B2824282000FB
:10003800131E1F282028242884316724803124286F
:100048007E10090080312828ED3084008230850038
:10005800A03086000030870040308431BB248031D6
:10006800F001F101F201F301F401F50120308400FF
:100078000030850024308431C12480317E10200076
:1000880083312D2B20003F08A03E86008701010800
:10009800C9002A0849060319522853285428C52993
:1000A800C8302006031959285A285B28C5298B30DF
:1000B80021060319602861286228C529BE01BF1ED0
:1000C800662867286A2822008C156C2822008C1163
:1000D80020003F19702871288728BF1974287528AF
:1000E80087283F1A782879288728BF1A7C287D28EE
:1000F800872822000C1000302000C400C50083317E
:10010800F7238031B4293F198A288B289A28BF19E8
:100118008E288F289A283F1A922893289A28BF1E3B
:10012800962897289A2822000C107F283F199D2886
:100138009E28B528BF19A128A228B5283F1EA528A2
:10014800A628B528BF1AA928AA28B52822000C1065
:10015800C7302000C4000030C5008331F723803148
:10016800B4293F19B828B928C828BF19BC28BD2800
:10017800C8283F1EC028C128C828BF1EC428C528B3
:10018800C82822000C10AC283F19CB28CC28E3281B
:10019800BF1DCF28D028E3283F1AD328D428E32826
:1001A800BF1AD728D828E32822000C10F3302000E3
:1001B800C4000130C5008331F7238031B4293F19C9
:1001C800E628E728F628BF1DEA28EB28F6283F1A74
:1001D800EE28EF28F628BF1EF228F328F62822007A
:1001E8000C10DA283F19F928FA280929BF1DFD281B
:1001F800FE2809293F1E012902290929BF1A0529B4
:100208000629092922000C10DA283F190C290D2982
:100218001C29BF1D102911291C293F1E1429152925
:100228001C29BF1E182919291C2922000C10DA289C
:100238003F1D1F2920292F29BF19232924292F29A8
:100248003F1A272928292F29BF1A2B292C292F297A
:1002580022000C147F283F1D322933294229BF1957
:100268003629372942293F1A3A293B294229BF1EF4
:100278003E293F29422922000C107F283F1D45298D
:1002880046295529BF1949294A2955293F1E4D296B
:100298004E295529BF1A51295229552922000C10D7
:1002A800AC283F1D582959296829BF195C295D299F
:1002B80068293F1E602961296829BF1E64296529AC
:1002C800682922000C10AC283F1D6B296C297B295A
:1002D800BF1D6F2970297B293F1A732974297B292F
:1002E800BF1A772978297B2922000C14DA283F1DA8
:1002F8007E297F298E29BF1D822983298E293F1AAD
:10030800862987298E29BF1E8A298B298E292200B2
:100318000C14DA283F1D91299229A129BF1D95297E
:100328009629A1293F1E99299A29A129BF1A9D29F1
:100338009E29A12922000C14DA283F1DA429A529E9
:10034800B429BF1DA829A929B4293F1EAC29AD2964
:10035800B429BF1EB029B129B42922000C14DA2807
:100368002000CA014A08203E860087018101013029
:10037800C8004808CA070B304A02031CC429C5290B
:10038800B6290800043026001306031DCC29CD2900
:100398004D2A7708F1007608F00005309300200018
:1003A8003903031DD829D9297B2AB9012B087002E2
:1003B800AD002C08713BAE003008F9002F08F8009A
:1003C800F936F80CF936F80CF936F80C7808BB0051
:1003D8002E08F9002D08F800F936F80CF936F80C53
:1003E800F936F80C7808F20072083B020318FD2968
:1003F800FE29022A3B087202BA00052A72083B024B
:10040800BA001A307202031C0A2A0B2A0E2A22008A
:100418000D17102A22000D1320003808031D152A75
:10042800162A202A10303A0203181B2A1C2A4C2AA2
:10043800B801B80AB7017B2A10303A020318252AF6
:10044800262A332A0130F800370A2B2AF835890B77
:100458002A2A7808FF3AF9007908F4053E2A01307B
:10046800F800370A382AF835890B372A7808F9004E
:100478007908F4040130F8007808B7070830370223
:10048800031C472A482A4C2AB8010130C3007B2A9A
:100498007B2A05301306031D522A532A7B2A770824
:1004A8002000AC007608AB000430260093007108E9
:1004B80020002C02031D622A70082B02031C652AE7
:1004C800662A6D2A70082B02AF0071082C3BB00019
:1004D800792A7108F9007008F800F809F9092B0859
:1004E8007807AF002C08793DB000B901B90A0800B7
:1004F80020004303031D812A822AEC2AC301C92A4A
:10050800C8307406031D892A8A2A8F2AC101C10AA4
:100518007408A000EC2AC101EC2A8B307406031D74
:10052800962A972A8F2A7408A1000230C100EC2A63
:100538007408A2000330C100EC2A7408A300043038
:10054800C100EC2A7408A4000530C100EC2A740824
:10055800A5000630C100EC2A7408A6000730C100C7
:10056800EC2A7408A7000830C100EC2A7408A80017
:100578000930C100EC2A7408A9000A30C100EC2A2D
:100588007408AA00C201C20A8F2A4108003A031956
:10059800842A013A0319912A033A03199C2A013A39
:1005A8000319A12A073A0319A62A013A0319AB2A03
:1005B800033A0319B02A013A0319B52A0F3A031965
:1005C800BA2A013A0319BF2A033A0319C42A8F2AFF
:1005D80008004C349F34ED343E346634B534C734A7
:1005E800143459348A34F8342B347334A034D23464
:1005F80001348E345D342F34FC34A434773405341C
:10060800D6349B3448343A34E934B1346234103443
:10061800C3342D34FE348C345F340734D434A634D8
:1006280075343834EB3499344A341234C134B33421
:100638006034EF343C344E349D34C534163464345D
:10064800B734FA3429345B348834D0340334713401
:10065800A23484311324833158302000C40004307C
:10066800C5008431C72483318B170B170030200055
:10067800C400C5008331F723833122000C10823176
:100688007C2283318331A923833183316B238331E6
:1006980020003C08031D512B522B5D2B3D03031DED
:1006A800562B572B592BBD01432B803146208331C4
:1006B800432BBC01F330C4000130C5008331F7235C
:1006C800833122000C108C15432B803126280630EC
:1006D80020002206031D712B722B882BD5302A0689
:1006E800031D772B782B882BBD01BD0A22008C15A2
:1006F80000302000C400C5008331F7238331220075
:100708000C102000BE01A82B02302206031D8D2BE1
:100718008E2BA72BB4302A06031D932B942BA72BC3
:10072800BD01BD0A22008C1100302000C400C500A4
:100738008331F723833100302000C400C5008331A2
:10074800F7238331852BBD01080020002208F30020
:100758002308C000BF01731DB22BB32BB52BBF16E6
:10076800B62BBF12F31DB92BBA2BBC2B3F16BD2BD2
:100778003F12731EC02BC12BC32BBF15C42BBF1137
:10078800F31EC72BC82BCA2B3F15CB2B3F11C01EFE
:10079800CE2BCF2BD12BBF14D22BBF10401FD52B64
:1007A800D62BD82B3F14D92B3F10080022009001DC
:1007B80001308C0040308D008E01083021009000FF
:1007C800F6308C00BF308D00FD308E003F302300A6
:1007D8008D003F308C00240090018D012100951779
:1007E80022009D01080020004508C7004408C600F3
:1007F800C736C60CC736C60C460825009800200028
:1008080044080339C6000430C635890B082C250076
:100818001A08CF392000460425009A0008008331C1
:10082800DA23843184319D2484318431CD24843188
:100838008431832484318431B32484318431A924DC
:10084800843184317624843184314424843108000D
:100858000B117508200095000130B1070030B23D3A
:10086800003032020A3003193102031C3C2C3D2CA3
:10087800432C8431902484312000B101B201080056
:1008880021001508C039143895000630200095005D
:100898000630F5000B118B16D130C4000430C500AA
:1008A8008431C724843108000130F600760820001E
:1008B800BE07C8303E02031C622C632C662CBC01A8
:1008C800BC0ABE0108002000131226001108FA0015
:1008D8001208FB007B08F7007A08F6008131C62170
:1008E80084310800103020009900970196011110FA
:1008F8001708B6001608B5000130980008000C303B
:1009080025009A009C0180309B0001309D009901D0
:100918009801F3309E0508002000330834040319B9
:10092800962C972C9C2C34088A0033080A008431B2
:1009380008007030210099009801220096012100DA
:100948001A1FA72CA82CA32C0800053026009300FA
:1009580092019101200013122100131608007C3027
:1009680020009B009A01911007309C000800FE00AF
:1009780012001E00FE0BBC2C003464008001013103
:10098800890BC22C003420004508B4004408B30089
:0C0998000800163021009700080008003D
:020000040001F9
:04000E00C43FFF1FCD
:00000001FF
